{
  "_format": "hh-sol-artifact-1",
  "contractName": "FILStake",
  "sourceName": "contracts/FILStake.sol",
  "abi": [
    {
      "inputs": [],
      "stateMutability": "nonpayable",
      "type": "constructor"
    },
    {
      "anonymous": false,
      "inputs": [
        {
          "indexed": true,
          "internalType": "address",
          "name": "minter",
          "type": "address"
        },
        {
          "indexed": false,
          "internalType": "uint256",
          "name": "amount",
          "type": "uint256"
        },
        {
          "indexed": false,
          "internalType": "uint256",
          "name": "minted",
          "type": "uint256"
        }
      ],
      "name": "Interest",
      "type": "event"
    },
    {
      "anonymous": false,
      "inputs": [
        {
          "indexed": true,
          "internalType": "address",
          "name": "staker",
          "type": "address"
        },
        {
          "indexed": true,
          "internalType": "uint256",
          "name": "id",
          "type": "uint256"
        },
        {
          "indexed": false,
          "internalType": "uint256",
          "name": "amount",
          "type": "uint256"
        },
        {
          "indexed": false,
          "internalType": "uint256",
          "name": "start",
          "type": "uint256"
        },
        {
          "indexed": false,
          "internalType": "uint256",
          "name": "end",
          "type": "uint256"
        },
        {
          "indexed": false,
          "internalType": "uint256",
          "name": "minted",
          "type": "uint256"
        }
      ],
      "name": "Staked",
      "type": "event"
    },
    {
      "anonymous": false,
      "inputs": [
        {
          "indexed": true,
          "internalType": "address",
          "name": "staker",
          "type": "address"
        },
        {
          "indexed": true,
          "internalType": "uint256",
          "name": "id",
          "type": "uint256"
        },
        {
          "indexed": false,
          "internalType": "uint256",
          "name": "amount",
          "type": "uint256"
        },
        {
          "indexed": false,
          "internalType": "uint256",
          "name": "start",
          "type": "uint256"
        },
        {
          "indexed": false,
          "internalType": "uint256",
          "name": "end",
          "type": "uint256"
        },
        {
          "indexed": false,
          "internalType": "uint256",
          "name": "realEnd",
          "type": "uint256"
        },
        {
          "indexed": false,
          "internalType": "uint256",
          "name": "minted",
          "type": "uint256"
        }
      ],
      "name": "Unstaked",
      "type": "event"
    },
    {
      "inputs": [
        {
          "internalType": "address",
          "name": "staker",
          "type": "address"
        },
        {
          "internalType": "uint256",
          "name": "stakeId",
          "type": "uint256"
        }
      ],
      "name": "_getStakePos",
      "outputs": [
        {
          "internalType": "uint256",
          "name": "p",
          "type": "uint256"
        }
      ],
      "stateMutability": "view",
      "type": "function"
    },
    {
      "inputs": [
        {
          "internalType": "uint256[]",
          "name": "params",
          "type": "uint256[]"
        }
      ],
      "name": "checkGovernanceFactors",
      "outputs": [],
      "stateMutability": "pure",
      "type": "function"
    },
    {
      "inputs": [],
      "name": "getAllFactors",
      "outputs": [
        {
          "internalType": "uint256",
          "name": "",
          "type": "uint256"
        },
        {
          "internalType": "uint256",
          "name": "",
          "type": "uint256"
        },
        {
          "internalType": "uint256",
          "name": "",
          "type": "uint256"
        },
        {
          "internalType": "uint256",
          "name": "",
          "type": "uint256"
        },
        {
          "internalType": "uint256",
          "name": "",
          "type": "uint256"
        },
        {
          "internalType": "uint256",
          "name": "",
          "type": "uint256"
        },
        {
          "internalType": "uint256",
          "name": "",
          "type": "uint256"
        },
        {
          "internalType": "uint256",
          "name": "",
          "type": "uint256"
        },
        {
          "internalType": "uint256",
          "name": "",
          "type": "uint256"
        }
      ],
      "stateMutability": "view",
      "type": "function"
    },
    {
      "inputs": [],
      "name": "getContractAddrs",
      "outputs": [
        {
          "internalType": "address",
          "name": "",
          "type": "address"
        },
        {
          "internalType": "address",
          "name": "",
          "type": "address"
        },
        {
          "internalType": "address",
          "name": "",
          "type": "address"
        },
        {
          "internalType": "address",
          "name": "",
          "type": "address"
        },
        {
          "internalType": "address",
          "name": "",
          "type": "address"
        }
      ],
      "stateMutability": "view",
      "type": "function"
    },
    {
      "inputs": [
        {
          "internalType": "uint256",
          "name": "amount",
          "type": "uint256"
        }
      ],
      "name": "getCurrentMintedFromInterest",
      "outputs": [
        {
          "internalType": "uint256",
          "name": "",
          "type": "uint256"
        },
        {
          "internalType": "uint256",
          "name": "",
          "type": "uint256"
        }
      ],
      "stateMutability": "view",
      "type": "function"
    },
    {
      "inputs": [
        {
          "internalType": "uint256",
          "name": "stake",
          "type": "uint256"
        },
        {
          "internalType": "uint256",
          "name": "duration",
          "type": "uint256"
        }
      ],
      "name": "getCurrentMintedFromStake",
      "outputs": [
        {
          "internalType": "uint256",
          "name": "",
          "type": "uint256"
        },
        {
          "internalType": "uint256",
          "name": "",
          "type": "uint256"
        }
      ],
      "stateMutability": "view",
      "type": "function"
    },
    {
      "inputs": [
        {
          "internalType": "uint256",
          "name": "stakeId",
          "type": "uint256"
        }
      ],
      "name": "getStakeInfoById",
      "outputs": [
        {
          "components": [
            {
              "components": [
                {
                  "internalType": "uint256",
                  "name": "id",
                  "type": "uint256"
                },
                {
                  "internalType": "uint256",
                  "name": "amount",
                  "type": "uint256"
                },
                {
                  "internalType": "uint256",
                  "name": "start",
                  "type": "uint256"
                },
                {
                  "internalType": "uint256",
                  "name": "end",
                  "type": "uint256"
                }
              ],
              "internalType": "struct FILStake.Stake",
              "name": "stake",
              "type": "tuple"
            },
            {
              "internalType": "bool",
              "name": "canWithdraw",
              "type": "bool"
            }
          ],
          "internalType": "struct FILStake.StakeInfo",
          "name": "",
          "type": "tuple"
        }
      ],
      "stateMutability": "view",
      "type": "function"
    },
    {
      "inputs": [
        {
          "internalType": "address",
          "name": "staker",
          "type": "address"
        },
        {
          "internalType": "uint256",
          "name": "stakeId",
          "type": "uint256"
        }
      ],
      "name": "getStakeInfoByStakerAndId",
      "outputs": [
        {
          "components": [
            {
              "components": [
                {
                  "internalType": "uint256",
                  "name": "id",
                  "type": "uint256"
                },
                {
                  "internalType": "uint256",
                  "name": "amount",
                  "type": "uint256"
                },
                {
                  "internalType": "uint256",
                  "name": "start",
                  "type": "uint256"
                },
                {
                  "internalType": "uint256",
                  "name": "end",
                  "type": "uint256"
                }
              ],
              "internalType": "struct FILStake.Stake",
              "name": "stake",
              "type": "tuple"
            },
            {
              "internalType": "bool",
              "name": "canWithdraw",
              "type": "bool"
            }
          ],
          "internalType": "struct FILStake.StakeInfo",
          "name": "result",
          "type": "tuple"
        }
      ],
      "stateMutability": "view",
      "type": "function"
    },
    {
      "inputs": [
        {
          "internalType": "uint256",
          "name": "stakeId",
          "type": "uint256"
        }
      ],
      "name": "getStakerById",
      "outputs": [
        {
          "internalType": "address",
          "name": "",
          "type": "address"
        }
      ],
      "stateMutability": "view",
      "type": "function"
    },
    {
      "inputs": [
        {
          "internalType": "address",
          "name": "staker",
          "type": "address"
        }
      ],
      "name": "getStakerStakes",
      "outputs": [
        {
          "components": [
            {
              "internalType": "address",
              "name": "staker",
              "type": "address"
            },
            {
              "internalType": "uint256",
              "name": "stakeSum",
              "type": "uint256"
            },
            {
              "components": [
                {
                  "components": [
                    {
                      "internalType": "uint256",
                      "name": "id",
                      "type": "uint256"
                    },
                    {
                      "internalType": "uint256",
                      "name": "amount",
                      "type": "uint256"
                    },
                    {
                      "internalType": "uint256",
                      "name": "start",
                      "type": "uint256"
                    },
                    {
                      "internalType": "uint256",
                      "name": "end",
                      "type": "uint256"
                    }
                  ],
                  "internalType": "struct FILStake.Stake",
                  "name": "stake",
                  "type": "tuple"
                },
                {
                  "internalType": "bool",
                  "name": "canWithdraw",
                  "type": "bool"
                }
              ],
              "internalType": "struct FILStake.StakeInfo[]",
              "name": "stakeInfos",
              "type": "tuple[]"
            }
          ],
          "internalType": "struct FILStake.StakerInfo",
          "name": "result",
          "type": "tuple"
        }
      ],
      "stateMutability": "view",
      "type": "function"
    },
    {
      "inputs": [
        {
          "internalType": "address",
          "name": "staker",
          "type": "address"
        }
      ],
      "name": "getStakerSum",
      "outputs": [
        {
          "internalType": "uint256",
          "name": "",
          "type": "uint256"
        }
      ],
      "stateMutability": "view",
      "type": "function"
    },
    {
      "inputs": [
        {
          "internalType": "address",
          "name": "staker",
          "type": "address"
        }
      ],
      "name": "getStakerTerms",
      "outputs": [
        {
          "internalType": "uint256",
          "name": "fitFixed",
          "type": "uint256"
        },
        {
          "internalType": "uint256",
          "name": "fitVariable",
          "type": "uint256"
        }
      ],
      "stateMutability": "view",
      "type": "function"
    },
    {
      "inputs": [],
      "name": "getStakersCount",
      "outputs": [
        {
          "internalType": "uint256",
          "name": "",
          "type": "uint256"
        }
      ],
      "stateMutability": "view",
      "type": "function"
    },
    {
      "inputs": [
        {
          "internalType": "uint256",
          "name": "start",
          "type": "uint256"
        },
        {
          "internalType": "uint256",
          "name": "end",
          "type": "uint256"
        }
      ],
      "name": "getStakersSubset",
      "outputs": [
        {
          "components": [
            {
              "internalType": "address",
              "name": "staker",
              "type": "address"
            },
            {
              "internalType": "uint256",
              "name": "stakeSum",
              "type": "uint256"
            },
            {
              "components": [
                {
                  "components": [
                    {
                      "internalType": "uint256",
                      "name": "id",
                      "type": "uint256"
                    },
                    {
                      "internalType": "uint256",
                      "name": "amount",
                      "type": "uint256"
                    },
                    {
                      "internalType": "uint256",
                      "name": "start",
                      "type": "uint256"
                    },
                    {
                      "internalType": "uint256",
                      "name": "end",
                      "type": "uint256"
                    }
                  ],
                  "internalType": "struct FILStake.Stake",
                  "name": "stake",
                  "type": "tuple"
                },
                {
                  "internalType": "bool",
                  "name": "canWithdraw",
                  "type": "bool"
                }
              ],
              "internalType": "struct FILStake.StakeInfo[]",
              "name": "stakeInfos",
              "type": "tuple[]"
            }
          ],
          "internalType": "struct FILStake.StakerInfo[]",
          "name": "result",
          "type": "tuple[]"
        }
      ],
      "stateMutability": "view",
      "type": "function"
    },
    {
      "inputs": [],
      "name": "getStatus",
      "outputs": [
        {
          "components": [
            {
              "internalType": "uint256",
              "name": "accumulatedInterest",
              "type": "uint256"
            },
            {
              "internalType": "uint256",
              "name": "accumulatedStake",
              "type": "uint256"
            },
            {
              "internalType": "uint256",
              "name": "accumulatedStakeDuration",
              "type": "uint256"
            },
            {
              "internalType": "uint256",
              "name": "accumulatedInterestMint",
              "type": "uint256"
            },
            {
              "internalType": "uint256",
              "name": "accumulatedStakeMint",
              "type": "uint256"
            },
            {
              "internalType": "uint256",
              "name": "accumulatedWithdrawn",
              "type": "uint256"
            },
            {
              "internalType": "uint256",
              "name": "nextStakeID",
              "type": "uint256"
            }
          ],
          "internalType": "struct FILStake.FILStakeInfo",
          "name": "",
          "type": "tuple"
        }
      ],
      "stateMutability": "view",
      "type": "function"
    },
    {
      "inputs": [
        {
          "internalType": "address",
          "name": "minter",
          "type": "address"
        },
        {
          "internalType": "uint256",
          "name": "amount",
          "type": "uint256"
        }
      ],
      "name": "handleInterest",
      "outputs": [
        {
          "internalType": "uint256",
          "name": "minted",
          "type": "uint256"
        }
      ],
      "stateMutability": "nonpayable",
      "type": "function"
    },
    {
      "inputs": [
        {
          "internalType": "address",
          "name": "staker",
          "type": "address"
        }
      ],
      "name": "onceStaked",
      "outputs": [
        {
          "internalType": "bool",
          "name": "",
          "type": "bool"
        }
      ],
      "stateMutability": "view",
      "type": "function"
    },
    {
      "inputs": [],
      "name": "owner",
      "outputs": [
        {
          "internalType": "address",
          "name": "",
          "type": "address"
        }
      ],
      "stateMutability": "view",
      "type": "function"
    },
    {
      "inputs": [
        {
          "internalType": "address",
          "name": "new_filLiquid",
          "type": "address"
        },
        {
          "internalType": "address",
          "name": "new_governance",
          "type": "address"
        },
        {
          "internalType": "address",
          "name": "new_tokenFILTrust",
          "type": "address"
        },
        {
          "internalType": "address",
          "name": "new_calculation",
          "type": "address"
        },
        {
          "internalType": "address",
          "name": "new_tokenFILGovernance",
          "type": "address"
        }
      ],
      "name": "setContractAddrs",
      "outputs": [],
      "stateMutability": "nonpayable",
      "type": "function"
    },
    {
      "inputs": [
        {
          "internalType": "uint256[]",
          "name": "params",
          "type": "uint256[]"
        }
      ],
      "name": "setGovernanceFactors",
      "outputs": [],
      "stateMutability": "nonpayable",
      "type": "function"
    },
    {
      "inputs": [
        {
          "internalType": "address",
          "name": "new_owner",
          "type": "address"
        }
      ],
      "name": "setOwner",
      "outputs": [],
      "stateMutability": "nonpayable",
      "type": "function"
    },
    {
      "inputs": [
        {
          "internalType": "uint256",
          "name": "new_rateBase",
          "type": "uint256"
        },
        {
          "internalType": "uint256",
          "name": "new_interest_share",
          "type": "uint256"
        },
        {
          "internalType": "uint256",
          "name": "new_stake_share",
          "type": "uint256"
        }
      ],
      "name": "setShares",
      "outputs": [],
      "stateMutability": "nonpayable",
      "type": "function"
    },
    {
      "inputs": [
        {
          "internalType": "uint256",
          "name": "new_minStakePeriod",
          "type": "uint256"
        },
        {
          "internalType": "uint256",
          "name": "new_maxStakePeriod",
          "type": "uint256"
        },
        {
          "internalType": "uint256",
          "name": "new_minStake",
          "type": "uint256"
        },
        {
          "internalType": "uint256",
          "name": "new_maxStakes",
          "type": "uint256"
        }
      ],
      "name": "setStakeParams",
      "outputs": [],
      "stateMutability": "nonpayable",
      "type": "function"
    },
    {
      "inputs": [
        {
          "internalType": "uint256",
          "name": "amount",
          "type": "uint256"
        },
        {
          "internalType": "uint256",
          "name": "maxStart",
          "type": "uint256"
        },
        {
          "internalType": "uint256",
          "name": "duration",
          "type": "uint256"
        }
      ],
      "name": "stakeFilTrust",
      "outputs": [
        {
          "internalType": "uint256",
          "name": "minted",
          "type": "uint256"
        }
      ],
      "stateMutability": "nonpayable",
      "type": "function"
    },
    {
      "inputs": [
        {
          "internalType": "uint256",
          "name": "stakeId",
          "type": "uint256"
        }
      ],
      "name": "unStakeFilTrust",
      "outputs": [
        {
          "internalType": "uint256",
          "name": "minted",
          "type": "uint256"
        }
      ],
      "stateMutability": "nonpayable",
      "type": "function"
    }
  ],
  "bytecode": "0x608060405234801561001057600080fd5b50600480546001600160a01b0319163317815569be951906eba2aa800000600d556c47f972b99b11287fe300000000600e5562015180600f55620fd200601055670de0b6b3a76400006011556064601255600a6013556014556006601555611c3d8061007d6000396000f3fe608060405234801561001057600080fd5b50600436106101335760003560e01c806308fcc6061461013857806313af40351461017e5780633b2eb2981461019357806348284789146101ca5780634d72b345146101d25780634e69d560146101e557806362773316146102435780636765174e1461027f5780636ff647ee1461029f578063892ebb42146102bf5780638c04942b146103095780638da5cb5b1461033157806392e00609146103425780639b63e9e6146103555780639ba3d7ed146103685780639c2f40741461037b578063a0885e931461038e578063a29bb19d146103a1578063c5c75f28146103c1578063d026759d146103d4578063d37efa9c146103e7578063d5b3d76d14610446578063dfda9e6214610459578063e815b8c41461046c578063ff61ff061461047f575b600080fd5b61016161014636600461172c565b6000908152600260205260409020546001600160a01b031690565b6040516001600160a01b0390911681526020015b60405180910390f35b61019161018c366004611761565b610492565b005b6101bc6101a1366004611761565b6001600160a01b031660009081526020819052604090205490565b604051908152602001610175565b6003546101bc565b6101916101e036600461177c565b6104f0565b6101ed610582565b6040516101759190600060e082019050825182526020830151602083015260408301516040830152606083015160608301526080830151608083015260a083015160a083015260c083015160c083015292915050565b61026f610251366004611761565b6001600160a01b031660009081526001602052604090205460ff1690565b6040519015158152602001610175565b61029261028d366004611761565b610608565b6040516101759190611886565b6102b26102ad366004611899565b61077d565b60405161017591906118bb565b600554600654601754601854601954604080516001600160a01b0396871681529486166020860152928516928401929092528316606083015291909116608082015260a001610175565b61031c610317366004611761565b6108af565b60408051928352602083019190915201610175565b6004546001600160a01b0316610161565b6101bc61035036600461191d565b61095f565b61031c610363366004611899565b610a03565b6101bc61037636600461172c565b610a26565b61031c61038936600461172c565b610cce565b61019161039c366004611947565b610ce6565b6103b46103af36600461191d565b610d70565b6040516101759190611973565b6103b46103cf36600461172c565b610e32565b6101bc6103e236600461191d565b610e62565b600d54600e54600f5460105460115460125460135460145460155460408051998a5260208a0198909852968801959095526060870193909352608086019190915260a085015260c084015260e083015261010082015261012001610175565b6101bc610454366004611947565b610f9e565b610191610467366004611997565b611326565b61019161047a366004611997565b611371565b61019161048d366004611a54565b611413565b6004546001600160a01b0316336001600160a01b0316146104ce5760405162461bcd60e51b81526004016104c590611a86565b60405180910390fd5b600480546001600160a01b0319166001600160a01b0392909216919091179055565b6004546001600160a01b0316336001600160a01b0316146105235760405162461bcd60e51b81526004016104c590611a86565b600580546001600160a01b03199081166001600160a01b03978816179091556006805482169587169590951790945560178054851693861693909317909255601880548416918516919091179055601980549092169216919091179055565b6105c26040518060e00160405280600081526020016000815260200160008152602001600081526020016000815260200160008152602001600081525090565b6040518060e00160405280600754815260200160085481526020016009548152602001600a548152602001600b548152602001600c548152602001601654815250905090565b6106106116bf565b6001600160a01b0382166000818152602081815260409091209183528154908301526001810180546001600160401b0381111561064f5761064f611981565b60405190808252806020026020018201604052801561068857816020015b6106756116e9565b81526020019060019003908161066d5790505b5060408401524360005b8254811015610774578281815481106106ad576106ad611ab2565b90600052602060002090600402016040518060800160405290816000820154815260200160018201548152602001600282015481526020016003820154815250508560400151828151811061070457610704611ab2565b60200260200101516000018190525082818154811061072557610725611ab2565b9060005260206000209060040201600301548210158560400151828151811061075057610750611ab2565b6020908102919091018101519115159101528061076c81611ade565b915050610692565b50505050919050565b6060818310801561079057506003548211155b6107ce5760405162461bcd60e51b815260206004820152600f60248201526e496e76616c696420696e646578657360881b60448201526064016104c5565b6107d88383611af7565b6001600160401b038111156107ef576107ef611981565b60405190808252806020026020018201604052801561082857816020015b6108156116bf565b81526020019060019003908161080d5790505b50905060005b6108388484611af7565b8110156108a857610878600361084e8684611b0a565b8154811061085e5761085e611ab2565b6000918252602090912001546001600160a01b0316610608565b82828151811061088a5761088a611ab2565b602002602001018190525080806108a090611ade565b91505061082e565b5092915050565b6001600160a01b038116600090815260208190526040812081906001810143835b8254811015610947578281815481106108eb576108eb611ab2565b90600052602060002090600402016003015482106109355782818154811061091557610915611ab2565b906000526020600020906004020160010154856109329190611b0a565b94505b8061093f81611ade565b9150506108d0565b508254610955908590611af7565b9450505050915091565b6001600160a01b03821660009081526020819052604081206001015b80548210156109c1578281838154811061099757610997611ab2565b90600052602060002090600402016000015403156109c157816109b981611ade565b92505061097b565b805482036108a85760405162461bcd60e51b815260206004820152600f60248201526e125b9d985b1a59081cdd185ad95259608a1b60448201526064016104c5565b600080610a1b610a138486611b1d565b600b5461145a565b915091509250929050565b33600081815260208190526040812090919060010182610a46838661095f565b90506000828281548110610a5c57610a5c611ab2565b9060005260206000209060040201905060004390508160030154811015610abe5760405162461bcd60e51b81526020600482015260166024820152755374616b65206e6f7420776974686472617761626c6560501b60448201526064016104c5565b8160030154811115610aeb57610ae8858360010154846003015484610ae39190611af7565b61157a565b95505b60018201546001600160a01b03861660009081526020819052604081208054909190610b18908490611af7565b9091555050601754600183015460405163a9059cbb60e01b81526001600160a01b039092169163a9059cbb91610b5391899190600401611b34565b6020604051808303816000875af1158015610b72573d6000803e3d6000fd5b505050506040513d601f19601f82011682018060405250810190610b969190611b4d565b508160010154600c6000828254610bad9190611b0a565b925050819055508160000154856001600160a01b03167f99e303fc09f735c25e5c4484adf9e39fe63be9940fe6bab97a10697bd6a34a73846001015485600201548660030154868c604051610c06959493929190611b6f565b60405180910390a383548490610c1e90600190611af7565b81548110610c2e57610c2e611ab2565b9060005260206000209060040201848481548110610c4e57610c4e611ab2565b90600052602060002090600402016000820154816000015560018201548160010155600282015481600201556003820154816003015590505083805480610c9757610c97611b92565b6000828152602081206004600019909301928302018181556001810182905560028101829055600301559055509395945050505050565b600080610cdd83600a54611638565b91509150915091565b6004546001600160a01b0316336001600160a01b031614610d195760405162461bcd60e51b81526004016104c590611a86565b610d238183611b0a565b8314610d625760405162461bcd60e51b815260206004820152600e60248201526d199858dd1bdc881a5b9d985b1a5960921b60448201526064016104c5565b601392909255601455601555565b610d786116e9565b6001600160a01b038316600090815260208190526040812060010190610d9e858561095f565b9050818181548110610db257610db2611ab2565b90600052602060002090600402016040518060800160405290816000820154815260200160018201548152602001600282015481526020016003820154815250508360000181905250818181548110610e0d57610e0d611ab2565b6000918252602091829020600360049092020101544310159084015250909392505050565b610e3a6116e9565b600082815260026020526040902054610e5c906001600160a01b031683610d70565b92915050565b6005546000906001600160a01b0316336001600160a01b031614610ec15760405162461bcd60e51b815260206004820152601660248201527513db9b1e48199a5b131a5c5d5a5908185b1b1bddd95960521b60448201526064016104c5565b610eca82610cce565b600a55600780549192508391600090610ee4908490611b0a565b90915550508015610f54576019546040516340c10f1960e01b81526001600160a01b03909116906340c10f1990610f219086908590600401611b34565b600060405180830381600087803b158015610f3b57600080fd5b505af1158015610f4f573d6000803e3d6000fd5b505050505b60408051838152602081018390526001600160a01b038516917f217f06aa4ea24d676354943aac30031f103d8c1a8e41d248eda7ef7db54959ab910160405180910390a292915050565b6000601154841015610fe55760405162461bcd60e51b815260206004820152601060248201526f105b5bdd5b9d081d1bdbc81cdb585b1b60821b60448201526064016104c5565b821580610ff25750824311155b6110355760405162461bcd60e51b8152602060048201526014602482015273426c6f636b20686569676874206578636565647360601b60448201526064016104c5565b600f54821015801561104957506010548211155b6110885760405162461bcd60e51b815260206004820152601060248201526f24b73b30b634b210323ab930ba34b7b760811b60448201526064016104c5565b60175460405163f3fef3a360e01b815233916001600160a01b03169063f3fef3a3906110ba9084908990600401611b34565b600060405180830381600087803b1580156110d457600080fd5b505af11580156110e8573d6000803e3d6000fd5b505050506000804385436110fc9190611b0a565b6001600160a01b03851660009081526020819052604090206012546001820180549496509294509092106111665760405162461bcd60e51b8152602060048201526011602482015270457863656564206d6178207374616b657360781b60448201526064016104c5565b8882600001600082825461117a9190611b0a565b90915550506016805460009081526002602052604080822080546001600160a01b0319166001600160a01b038a161790558051608081019091528254849391928392906111c683611ade565b90915550815260208082018d90526040808301899052606092830188905284546001818101875560009687528387208651600490930201918255858401518282015585830151600283015594909301516003909301929092556001600160a01b03891684529190915290205460ff1661128557600380546001810182556000919091527fc2575a0e9e593c00f959f8c92f12db2869c3395a3b0502d05e2516446f71f85b0180546001600160a01b0319166001600160a01b0387161790555b6001600160a01b0385166000908152600160208190526040909120805460ff191690911790556112b6858a8961157a565b955060016016546112c79190611af7565b604080518b815260208101879052908101859052606081018890526001600160a01b038716907f6381ea17a5324d29cc015352644672ead5185c1c61a0d3a521eda97e35cec97e9060800160405180910390a350505050509392505050565b805160021461136e5760405162461bcd60e51b8152602060048201526014602482015273092dcecc2d8d2c840d2dce0eae840d8cadccee8d60631b60448201526064016104c5565b50565b6006546001600160a01b0316336001600160a01b0316146113ce5760405162461bcd60e51b815260206004820152601760248201527613db9b1e4819dbdd995c9b985b98d948185b1b1bddd959604a1b60448201526064016104c5565b806000815181106113e1576113e1611ab2565b6020026020010151600d819055508060018151811061140257611402611ab2565b6020026020010151600e8190555050565b6004546001600160a01b0316336001600160a01b0316146114465760405162461bcd60e51b81526004016104c590611a86565b600f93909355601091909155601155601255565b600080601860009054906101000a90046001600160a01b03166001600160a01b03166380cd8b2b60095486600e54601354601554601960009054906101000a90046001600160a01b03166001600160a01b0316630493bc856040518163ffffffff1660e01b8152600401602060405180830381865afa1580156114e1573d6000803e3d6000fd5b505050506040513d601f19601f820116820180604052508101906115059190611ba8565b61150f9190611b1d565b6115199190611bc1565b886040518663ffffffff1660e01b815260040161153a959493929190611b6f565b6040805180830381865afa158015611556573d6000803e3d6000fd5b505050506040513d601f19601f82011682018060405250810190610a1b9190611be3565b60006115868383610a03565b600b556008805491925084916000906115a0908490611b0a565b909155506115b090508284611b1d565b600960008282546115c19190611b0a565b90915550508015611631576019546040516340c10f1960e01b81526001600160a01b03909116906340c10f19906115fe9087908590600401611b34565b600060405180830381600087803b15801561161857600080fd5b505af115801561162c573d6000803e3d6000fd5b505050505b9392505050565b600080601860009054906101000a90046001600160a01b03166001600160a01b03166380cd8b2b60075486600d54601354601454601960009054906101000a90046001600160a01b03166001600160a01b0316630493bc856040518163ffffffff1660e01b8152600401602060405180830381865afa1580156114e1573d6000803e3d6000fd5b604051806060016040528060006001600160a01b0316815260200160008152602001606081525090565b604051806040016040528061171f6040518060800160405280600081526020016000815260200160008152602001600081525090565b8152600060209091015290565b60006020828403121561173e57600080fd5b5035919050565b80356001600160a01b038116811461175c57600080fd5b919050565b60006020828403121561177357600080fd5b61163182611745565b600080600080600060a0868803121561179457600080fd5b61179d86611745565b94506117ab60208701611745565b93506117b960408701611745565b92506117c760608701611745565b91506117d560808701611745565b90509295509295909350565b805180518352602081015160208401526040810151604084015260608101516060840152506020810151151560808301525050565b80516001600160a01b03168252602080820151818401526040808301516060918501829052805191850182905260009290810191839060808701905b8083101561187b576118658286516117e1565b60a0820191508385019450600183019250611852565b509695505050505050565b6020815260006116316020830184611816565b600080604083850312156118ac57600080fd5b50508035926020909101359150565b6000602080830181845280855180835260408601915060408160051b870101925083870160005b8281101561191057603f198886030184526118fe858351611816565b945092850192908501906001016118e2565b5092979650505050505050565b6000806040838503121561193057600080fd5b61193983611745565b946020939093013593505050565b60008060006060848603121561195c57600080fd5b505081359360208301359350604090920135919050565b60a08101610e5c82846117e1565b634e487b7160e01b600052604160045260246000fd5b600060208083850312156119aa57600080fd5b82356001600160401b03808211156119c157600080fd5b818501915085601f8301126119d557600080fd5b8135818111156119e7576119e7611981565b8060051b604051601f19603f83011681018181108582111715611a0c57611a0c611981565b604052918252848201925083810185019188831115611a2a57600080fd5b938501935b82851015611a4857843584529385019392850192611a2f565b98975050505050505050565b60008060008060808587031215611a6a57600080fd5b5050823594602084013594506040840135936060013592509050565b60208082526012908201527113db9b1e481bdddb995c88185b1b1bddd95960721b604082015260600190565b634e487b7160e01b600052603260045260246000fd5b634e487b7160e01b600052601160045260246000fd5b600060018201611af057611af0611ac8565b5060010190565b81810381811115610e5c57610e5c611ac8565b80820180821115610e5c57610e5c611ac8565b8082028115828204841417610e5c57610e5c611ac8565b6001600160a01b03929092168252602082015260400190565b600060208284031215611b5f57600080fd5b8151801515811461163157600080fd5b948552602085019390935260408401919091526060830152608082015260a00190565b634e487b7160e01b600052603160045260246000fd5b600060208284031215611bba57600080fd5b5051919050565b600082611bde57634e487b7160e01b600052601260045260246000fd5b500490565b60008060408385031215611bf657600080fd5b50508051602090910151909290915056fea26469706673582212201ab100530b9226ac9c4c1357446a96f76b14aec838b33f3052b19766763a94ac64736f6c63430008130033",
  "linkReferences": {},
  "deployedLinkReferences": {}
}